{
  "_format": "hh3-artifact-1",
  "contractName": "ConfessionContract",
  "sourceName": "contracts/Confession.sol",
  "abi": [
    {
      "anonymous": false,
      "inputs": [
        {
          "indexed": true,
          "internalType": "address",
          "name": "user",
          "type": "address"
        },
        {
          "indexed": false,
          "internalType": "uint256",
          "name": "timestamp",
          "type": "uint256"
        }
      ],
      "name": "ConfessionAdded",
      "type": "event"
    },
    {
      "inputs": [
        {
          "internalType": "string",
          "name": "_encryptedContent",
          "type": "string"
        }
      ],
      "name": "addConfession",
      "outputs": [],
      "stateMutability": "nonpayable",
      "type": "function"
    },
    {
      "inputs": [],
      "name": "getMyConfessions",
      "outputs": [
        {
          "components": [
            {
              "internalType": "string",
              "name": "encryptedContent",
              "type": "string"
            },
            {
              "internalType": "uint256",
              "name": "timestamp",
              "type": "uint256"
            }
          ],
          "internalType": "struct ConfessionContract.Confession[]",
          "name": "",
          "type": "tuple[]"
        }
      ],
      "stateMutability": "view",
      "type": "function"
    }
  ],
  "bytecode": "0x6080604052348015600e575f5ffd5b506104af8061001c5f395ff3fe608060405234801561000f575f5ffd5b5060043610610034575f3560e01c80639e4291c514610038578063b2f2b8a81461004d575b5f5ffd5b61004b610046366004610220565b61006b565b005b610055610122565b604051610062919061028e565b60405180910390f35b335f908152602081815260409182902082516060601f860184900490930281018301845292830184815290929182919086908690819085018382808284375f9201829052509385525050426020938401525083546001810185559381522081519192600202019081906100de90826103be565b5060209182015160019091015560405142815233917f9dfd370e2b8d44a2a83394744aea616b5b062ae3f1cc4e5eca11d4e1b29a376f910160405180910390a25050565b335f90815260208181526040808320805482518185028101850190935280835260609492939192909184015b82821015610217578382905f5260205f2090600202016040518060400160405290815f8201805461017e9061033a565b80601f01602080910402602001604051908101604052809291908181526020018280546101aa9061033a565b80156101f55780601f106101cc576101008083540402835291602001916101f5565b820191905f5260205f20905b8154815290600101906020018083116101d857829003601f168201915b505050505081526020016001820154815250508152602001906001019061014e565b50505050905090565b5f5f60208385031215610231575f5ffd5b823567ffffffffffffffff811115610247575f5ffd5b8301601f81018513610257575f5ffd5b803567ffffffffffffffff81111561026d575f5ffd5b85602082840101111561027e575f5ffd5b6020919091019590945092505050565b5f602082016020835280845180835260408501915060408160051b8601019250602086015f5b8281101561031a57603f1987860301845281518051604087528051806040890152806020830160608a015e5f6060828a010152602083015160208901526060601f19601f83011689010197505050506020820191506020840193506001810190506102b4565b50929695505050505050565b634e487b7160e01b5f52604160045260245ffd5b600181811c9082168061034e57607f821691505b60208210810361036c57634e487b7160e01b5f52602260045260245ffd5b50919050565b601f8211156103b957805f5260205f20601f840160051c810160208510156103975750805b601f840160051c820191505b818110156103b6575f81556001016103a3565b50505b505050565b815167ffffffffffffffff8111156103d8576103d8610326565b6103ec816103e6845461033a565b84610372565b6020601f82116001811461041e575f83156104075750848201515b5f19600385901b1c1916600184901b1784556103b6565b5f84815260208120601f198516915b8281101561044d578785015182556020948501946001909201910161042d565b508482101561046a57868401515f19600387901b60f8161c191681555b50505050600190811b0190555056fea2646970667358221220248d2ad0425133283bc7478e5174edea9dbafb098808288aa34b751e4b67cf3564736f6c634300081c0033",
  "linkReferences": {},
  "deployedLinkReferences": {},
  "immutableReferences": {},
  "inputSourceName": "project/contracts/Confession.sol",
  "buildInfoId": "solc-0_8_28-ebfb95848173458f81d4a4418be9cc6786a8d949"
}